S00D00006966726E732E73726563F5
S11300000C9460010C9486010C9486010C94860176
S11300100C9486010C9486010C9486010C94860140
S11300200C9486010C9486010C9486010C94860130
S11300300C9486010C9486010C94D60E0C948601C3
S11300400C94BF0E0C9486010C9486010C948601CA
S11300500C9486010C9486010C9486010C94860100
S11300600C9486010C9486010C9486010C948601F0
S11300700C9486010C9486010C9486010C948601E0
S11300800C9486010C9486010C9486010C948601D0
S11300900C9486010C9486010C9486010C948601C0
S11300A00C9486010C9486010C9486010C948601B0
S11300B00C9486010C9486010C9486010C947211A4
S11300C00C9486010C9440110C9486010C948601C6
S11300D00C9486010C9486010C9486010C94860180
S11300E00C9486010C9486010C9486010C94860170
S11300F00C9486010C9486010C9486010C94860160
S11301000C9486010C9486010C9486010C9486014F
S11301100C9486010C9486010C9486010C9486013F
S11301200C9486010C9486010C9486010C9486012F
S11301300C9486010C94DE100C9486010C94C71068
S11301400C9486010C9486010C9486010C9486010F
S11301500C9486010C9486010C9486010C948601FF
S11301600C94CD130C941F140C9486010C948601EA
S11301700C9486010C9486010C9486010C948601DF
S11301800C9486010C9486010C9486010C948601CF
S11301900C9486010C9486010C9486010C948601BF
S11301A00C9486010C9486010C9486010C948601AF
S11301B00C9445080C9486010C942F080C94860129
S11301C00C9486010C9486010C9486010C9486018F
S11301D00C9486010C9486010C9486010C9486017F
S11301E00C9486010C9486010C9486010C9486016F
S11301F00C9486010C9486010C948601BCE5ACC574
S11302009C85960392C1912190961D03ED01DCFD1E
S1130210CCF5BCE5ACC5A86EBCE5ACC59C85960325
S113022092C1912190961D03ED01DCFDCCF5BCE556
S1130230ACC5A86EBCE5ACC59C85960392C1912162
S113024090961D03ED01DCFDCCF5BCE5ACC5A86EB4
S1130250BCE5ACC59C85960392C1912190961D0383
S1130260ED01DCFDCCF5BCE5ACC5A86EBCE5ACC5C8
S11302709C85960392C1912190961D03ED01DCFDAE
S1130280CCF5BCE5ACC5A86EBCE5ACC59C859603B5
S113029092C1912190961D03ED01DCFDCCF5BCE5E6
S11302A0ACC5A86EBCE5ACC59C85960392C19121F2
S11302B090961D03ED01DCFDCCF5BCE5ACC5A86E44
S11302C011241FBEC0E0D0E4DEBFCDBF00E00CBFF0
S11302D018BE19BE1ABE1BBE13E2A0E0B0E2ECE6E3
S11302E0F7E700E00BBF02C007900D92AC3EB107E8
S11302F0D9F71BBE19E2ACEEB3E201C01D92A237DE
S1130300B107E1F70E9488010C94B43B0C940000FF
S11303108F929F92AF92BF92CF92DF92EF920F9300
S1130320CF93DF930F920F92CDB7DEB7B091002039
S1130330A0910120E0910220E983F0910320FA8347
S11303408090042090900520A0900620B090072073
S11303508DB79EB744978DBF9EBF8DB79EB701964C
S113036025E43EE145E851E4FC01208331834283E6
S1130370538324EC31EA4FE45DE9FC0124833583A3
S11303804683578322ED38ED4BE55BE9FC0120877A
S113039031874287538720EC3FE545E65EEEFC015A
S11303A0248735874687578725E030E040E050E0D2
S11303B0FC01208B318B428B538B80E090E060E01A
S11303C070E040E050E02B2F0A2FE980CA800E94A1
S11303D08F028DB79EB744968DBF9EBFEDB7FEB713
S11303E03797EDBFFEBF2DB73EB72F5F3F4F80EE6F
S11303F097E0F9018083918380EE96E0A0E0B0E07D
S1130400F90182839383A483B58382E0F90186830F
S113041084E068E040EC22E000E4EE240F2ECC24DB
S1130420F7E0DF2EF02D0F2EF0E2AF2EF7E0BF2E17
S1130430F02D0F2EF0EC8F2EF7E09F2EF02D0E9462
S113044039028DB79EB707968DBF9EBF01C00000CD
S11304500E94A7140E94A62F88E490E0FC018081EA
S11304608823A9F788E490E021E0FC0120838895A3
S1130470EECF8F929F92AF92BF92CF92DF92EF9284
S1130480FF920F931F93CF93DF93CDB7DEB72C97D3
S1130490CDBFDEBF89836A834B832C830D83EE82B9
S11304A0CF82D886A986BA868B869C8689816A8102
S11304B04B812C810D81EE800E948B048C8D9D8D4F
S11304C06F81788549855A852B853C85EE8CFF8C18
S11304D008A119A1CAA00E9443050E94B8078DEE85
S11304E098E00E942F280E9486070E9477030E94AA
S11304F0F6050E94EB070E9417060E9479072C96C6
S1130500CDBFDEBFDF91CF911F910F91FF90EF9090
S1130510DF90CF90BF90AF909F908F9008958F926F
S11305209F92AF92BF92CF92EF920F93CF93DF93AC
S1130530CDB7DEB72E97CDBFDEBF89839A836B8399
S11305407C834D835E832F830887E986CA868B86E6
S11305509C86AD86BE8680910225909103258130CC
S1130560910521F410920425109205258091062509
S113057090910725009741F08130910561F4109224
S113058020281092212807C089EF9FEF809320280C
S11305909093212800008F8180930028898580937F
S11305A001288885809302288A85809303288B8577
S11305B09C85AD85BE858093042890930528A093DF
S11305C00628B09307281092082810920928109240
S11305D00A2810920B288B8D9C8DAD8DBE8D809337
S11305E00C2890930D28A0930E28B0930F288F8D7C
S11305F098A1A9A1BAA18093102890931128A0933F
S11306001228B09313288BA19CA1ADA1BEA1809305
S1130610142890931528A0931628B09317288FA117
S113062098A5A9A5BAA58093182890931928A093F2
S11306301A28B0931B2889819A818093DF2790938D
S1130640E0278B819C818093DD279093DE278D8129
S11306509E818093E1279093E2278CE098E2809337
S11306603B2890933C2880E098E28093372890932D
S1130670382810923A28109220281092212810929B
S1130680332810923428109235281092362810926C
S113069051281092522810925D2810925E281092D0
S11306A05F281092602883E080931C281092F22423
S11306B08BA59CA5ADA5BEA58093FE249093FF2495
S11306C0A0930025B09301258DEE98E0809310252A
S11306D0909311252E96CDBFDEBFDF91CF910F9160
S11306E0EF90CF90BF90AF909F908F900895CF934D
S11306F0DF93CDB7DEB76497CDBFDEBF8DED97E254
S113070089839A831F82188619861A868FEC91E052
S1130710FC0180818823D4F389819A8165E070E0AB
S11307204FE350E00E947B3BCE01079689839A8376
S11307308FEC91E0FC0180818823D4F389819A8134
S113074066E470E042E050E00E947B3B8DED97E26E
S11307506FE30E94D22189879A8729853A858F8100
S113076098852817390749F080915827909159277F
S11307708062809358279093592780E195E289837A
S11307809A838FEC91E0FC0180818823D4F38981E2
S11307909A816EE470E042E050E00E947B3BCE011F
S11307A0079689839A838FEC91E0FC0180818823EA
S11307B0D4F389819A8162E570E042E050E00E94BE
S11307C07B3B80E195E262E00E94D22189879A878F
S11307D029853A858F81988528173907E1F080911A
S11307E058279091592792608093582790935927BE
S11307F012C0789480EA90E026E0FC012283809184
S113080058279091592782608093582790935927AD
S11308100E94A71401C00000809158279091592785
S113082080729070009729F78091582790915927EA
S1130830807092700097E9F680915827909159271B
S11308408D7F8093582790935927F8948CED97E0E7
S11308508D879E8785E090E08F87988B88E0898BD1
S11308608CE08A8B87E18B8B8EE08C8B8CED97E010
S1130870809316299093172981E090E0809314299E
S11308809093152984E090E0809318299093192976
S113089088E080931A2910921B2910921C29109227
S11308A01D298091DD279091DE2780930425909364
S11308B005258091E1279091E22780930625909366
S11308C007258091DF279091E0278093022590935C
S11308D003251B821C821D821E826496CDBFDEBF4F
S11308E0DF91CF910895CF93DF93CDB7DEB70AC0E0
S11308F084E390E028EDFC01208380E890E02BE283
S1130900FC01208380E890E0FC0180818A3281F739
S1130910DF91CF910895EF920F93CF93DF9300D09F
S113092000D0CDB7DEB789836A834B832C830D83D4
S1130930EE828981882F90E08130910589F08230A0
S113094091051CF4009741F01FC08330910561F0BC
S11309508430910589F018C08A810E94D90414C09A
S11309608A810E94D90410C08D816E810E940D0578
S11309708A810E94D90408C08B810E94D9048B818A
S11309806C810E942105000005C080E490E069812B
S11309900E94073780E490E0FC01908189819817D8
S11309A0A1F72696CDBFDEBFDF91CF910F91EF90D7
S11309B00895CF93DF930F92CDB7DEB7898380E696
S11309C090E021E0FC01208380E590E020E530E028
S11309D0F90130812981232BFC01208380E590E0FB
S11309E020E530E0F90120812860FC01208300002B
S11309F080E590E0FC01218181E090E0222311F068
S1130A0080E090E02981222F30E082239323009715
S1130A1079F70F90DF91CF910895CF93DF930F92E1
S1130A200F92CDB7DEB789836A8380E590E0398180
S1130A302A81232BFC0122830F900F90DF91CF9109
S1130A400895CF93DF930F920F92CDB7DEB78983CA
S1130A506A8380E590E039812A81232BFC01258378
S1130A6080E590E020E530E0F90120812061FC017F
S1130A702083000080E590E0FC0181810F900F90BD
S1130A80DF91CF910895CF92EF92FF920F931F932E
S1130A90CF93DF93CDB7DEB72D97CDBFDEBF89836C
S1130AA09A836B837C834D835E832F833887E986A7
S1130AB0FA860B871C87CD8680E096E02FEFFC0139
S1130AC0218380E296E02FEFFC01218380E496E00D
S1130AD0FC01118280E496E020ECFC01208B80E490
S1130AE096E020ECFC01218B80E496E020ECFC01F4
S1130AF0228B80E496E020ECFC01238B80E696E0D8
S1130B002FEFFC01218380E896E02FEFFC01218385
S1130B1080EA96E02FEFFC01218380EA96E020E44E
S1130B20FC01208B80EE96E02FEFFC01218380E016
S1130B3097E02FEFFC01218380EC97E02FEFFC017D
S1130B40218380EE97E02FEFFC01218380E096E083
S1130B502FEFFC01258380E296E02FEFFC01258333
S1130B6080E496E0FC01158280E896E02FEFFC011A
S1130B70258380EA96E02FEFFC01258380EE96E042
S1130B802FEFFC01258380E097E02FEFFC01258304
S1130B9080EC97E02FEFFC01258380EE97E02FEFA8
S1130BA0FC01258380E297E020E237E0F90122810D
S1130BB02260FC01228380E297E020E237E0F90121
S1130BC021812160FC0121832D96CDBFDEBFDF9101
S1130BD0CF911F910F91FF90EF90CF900895CF93F5
S1130BE0DF93CDB7DEB7DF91CF910895CF93DF9335
S1130BF0CDB7DEB70E9403228DE296E0FC01199581
S1130C000E9484068BE896E0FC0119950E94E60692
S1130C108DEE96E0FC0119950E941F0786E297E08D
S1130C20FC0119950E945A07DF91CF910895CF9343
S1130C30DF93CDB7DEB780E098E023E0FC012083AA
S1130C4080E09BE023E0FC01208380E49BE023E040
S1130C50FC012083DF91CF910895CF93DF93CDB72B
S1130C60DEB780E098E023E7FC01218380E098E090
S1130C702FE0FC01228380E098E022E0FC0126833F
S1130C8080E098E022E0FC01278380E098E0209156
S1130C900E2930910F29FC0126A337A380E098E0A8
S1130CA020910E2930910F2920553040FC0120A7B6
S1130CB031A780E098E020910E2930910F2920552A
S1130CC03040FC0122A733A780E098E020910E2950
S1130CD030910F2920553040FC0124A735A780E02E
S1130CE098E02CEB34E0FC0126A737A780E09BE0DA
S1130CF0FC01148680E098E027E833E1FC0120A39E
S1130D0031A3DF91CF910895CF93DF93CDB7DEB7B1
S1130D10DF91CF9108950F931F93CF93DF930F9299
S1130D20CDB7DEB780E099E023E1FC01218380E0C8
S1130D3099E021E0FC01228380E099E023E0FC01BA
S1130D40268385E0898320E039E08981682F70E07B
S1130D508091FE249091FF24A0910025B09101255B
S1130D60AC01649FC001659F900D749F900D112488
S1130D700197F90186A397A300E019E08981882FE0
S1130D8090E0A0E0B0E02091FE243091FF24409157
S1130D90002550910125BC01CD010E94C539DC011B
S1130DA0CB01B695A79597958795F80180A791A74C
S1130DB080E099E0FC01148680E099E0FC0114864F
S1130DC00F90DF91CF911F910F910895CF93DF93EF
S1130DD0CDB7DEB7DF91CF910895CF93DF93CDB731
S1130DE0DEB780E09AE023E1FC01218380E09AE011
S1130DF021E0FC01228380E09AE023E0FC012683C9
S1130E0080E09AE023E0FC01278380E09AE028EE6A
S1130E1033E0FC0120A731A780E09AE020E03AE02B
S1130E20F90120A531A5255F3A4FFC0126A337A37C
S1130E3080E09AE0FC011486DF91CF910895CF936E
S1130E40DF93CDB7DEB7DF91CF910895CF93DF93D2
S1130E50CDB7DEB780E09BE023E1FC01218380E095
S1130E609BE021E0FC01228380E09BE023E0FC0185
S1130E70268380E09BE023E0FC01278380E09BE065
S1130E802091E8283091E928FC0120A731A780E0CF
S1130E909BE02091E6283091E728FC0126A337A3A4
S1130EA081E08093292880E09BE0FC011486DF9197
S1130EB0CF910895CF93DF93CDB7DEB780E49BE065
S1130EC023E1FC01218380E49BE021E0FC012283F7
S1130ED080E49BE02BEE32ECFC0120A731A780E4F8
S1130EE09BE02FE433ECFC0126A337A3DF91CF91E1
S1130EF00895CF93DF93CDB7DEB780EA90E026E084
S1130F00FC0122837894DF91CF910895CF93DF93EE
S1130F10CDB7DEB780E696E028E0FC01218380E6C9
S1130F2096E024E0FC01228380EA99E023E1FC01BD
S1130F30268380EA99E028ECFC01278380EA99E083
S1130F4023E0FC01258380EA99E020EA39E0F901F5
S1130F5023812062FC01238380EA99E020EA39E0BE
S1130F60F90124812861FC012483DF91CF91089544
S1130F70CF93DF93CDB7DEB780E093E025E0FC01AB
S1130F80208380E093E0FC01118280E093E021E083
S1130F90FC01228380E093E0FC01138280E093E073
S1130FA0FC01148280E293E025E0FC01208380E2CE
S1130FB093E0FC01118280E293E028E0FC012283AB
S1130FC080E293E0FC01138280E293E0FC0114824E
S1130FD0DF91CF910895CF93DF93CDB7DEB780E053
S1130FE091E020E8FC01208380E091E024EAFC0108
S1130FF020A380E091E0FC0116A280E091E028E8C3
S1131000FC0122A380E091E0FC0114A215A280E07F
S113101091E020EAFC0123A380E091E02CE138E296
S1131020FC0120A780E091E02CE138E2232F330F6C
S1131030330BFC0121A780E091E0FC0112A680E0C3
S113104091E0FC0114A680E091E02AE0FC0125A7D0
S113105080E091E0FC0116A6DF91CF9108951F92E4
S11310600F920FB60F92009038000F921124CF9375
S1131070DF93CDB7DEB7DF91CF910F9000923800A8
S11310800F900FBE0F901F9018951F920F920FB6DE
S11310900F92009038000F92009039000F92009048
S11310A03B000F921124EF92FF920F931F932F9303
S11310B03F934F935F936F937F938F939F93AF93DC
S11310C0BF93EF93FF93CF93DF93CDB7DEB78091B8
S11310D02928882F90E08130910529F084309105EA
S11310E009F407C32CC680912028909121280196E9
S11310F08093202890932128809151289091522800
S1131100009709F083C08091202890912128833092
S113111091050CF07BC080914D2890914E28A091B0
S11311204F28B09150280097A105B10509F4BDC01E
S113113080914D2890914E28A0914F28B09150282D
S113114083309105A105B105A0F180914D289091BE
S11311504E28A0914F28B0915028B695A795979501
S11311608795809353289093542820915328309145
S1131170542880E09BE0FC0180A591A5281739073D
S113118058F080E09BE0FC0180A591A59695879599
S113119080935328909354288091532890915428F5
S11311A0009769F481E090E0809353289093542849
S11311B006C081E090E0809353289093542880E007
S11311C09BE020E03BE0F90140A551A52091532884
S11311D030915428240F351FFC0120A731A780E04B
S11311E09BE020E03BE0F90146A157A12091532860
S11311F030915428240F351FFC0126A337A381E026
S113120090E080935128909352284FC080912028D9
S113121090912128833091050CF047C080E09BE039
S113122020E03BE0F90140A551A5209153283091DD
S113123054287A01E21AF30A9701FC0120A731A786
S113124080E09BE020E03BE0F90146A157A120911A
S11312505328309154287A01E21AF30A9701FC01C9
S113126026A337A320914D2830914E2840914F2832
S1131270509150288091532890915428CC01A0E09B
S1131280B0E079018A01E81AF90A0A0B1B0BD801AC
S1131290C70180934D2890934E28A0934F28B09374
S11312A05028109251281092522880E09BE0FC01B3
S11312B08181882F90E080729070009749F080E0DF
S11312C09BE020E03BE0F90121812F7DFC0121839B
S11312D080E09BE0FC018181882F90E08074907015
S11312E0009749F080E09BE020E03BE0F901218198
S11312F02F7BFC012183809135289091362800971B
S113130009F03EC0809120289091212887309105D2
S1131310B9F52091232830912428809112299091A5
S113132013292817390761F51092232810922428CD
S113133080E09BE020E03BE0F90121812062FC0198
S1131340218380E09BE02091E8283091E928FC018A
S113135022A733A780EE96E020EE36E0F90126813D
S11313602260FC0126831092EC231092ED238091DD
S1131370022590910325009719F482E080936A294D
S1131380809102259091032581309105D1F58091BA
S11313902028909121288730910599F5809135284E
S11313A090913628009769F52091232830912428BC
S11313B080911229909113298158904082179307A4
S11313C000F52091232830912428809112299091AE
S11313D0132928173907A8F480EE96E020EE36E0AA
S11313E0F90125812260FC0125838091EC239091F1
S11313F0ED2301968093EC239093ED2382E0809378
S11314006A298091022590910325009721F5809106
S113141020289091212887309105E9F4809145286E
S11314209091462881309105B1F4809135289091AE
S11314303628009781F480914728893049F08091BB
S113144047288F5F8093472882E080936A292CC0C5
S11314501092472829C08091022590910325009776
S113146019F5809120289091212887309105E1F485
S1131470809145289091462882309105A9F4809165
S1131480352890913628009779F4809148288A303D
S113149049F0809148288F5F8093482882E08093A8
S11314A06A2902C0109248282091202830912128CE
S11314B08091EE27882F90E02817390709F03CC463
S11314C0109220281092212880EA96E020EA36E043
S11314D0F90121812160FC01218384E08093292882
S11314E080E091E020E031E0F90120A12F77FC01B8
S11314F020A3809158279091592782608093582780
S11315009093592780E09BE020E03BE0F9012181A2
S1131510207FFC01218380E09BE0FC0110A611A642
S11315208091352890913628009731F486E190E037
S11315308093272890932828809127289091282801
S11315408830910581F480E09BE02091F02830916F
S1131550F128FC0126A337A380E190E0809327289B
S1131560909328288BC08091272890912828803137
S1131570910581F480E09BE02091F4283091F528D6
S1131580FC0126A337A382E190E08093272890935F
S1131590282874C0809127289091282882319105A9
S11315A081F480E09BE02091F8283091F928FC0137
S11315B026A337A384E190E08093272890932828DA
S11315C05DC080912728909128288431910571F479
S11315D080E09BE02091FC283091FD28FC0126A3AB
S11315E037A3109227281092282848C080912728D2
S11315F090912828009781F480E09BE02091EC28CA
S11316003091ED28FC0126A337A388E090E0809375
S113161027289093282832C0809127289091282841
S11316208631910551F480E09BE0209102293091AC
S11316300329FC0126A337A321C080912728909178
S113164028288230910551F480E09BE020910629FE
S113165030910729FC0126A337A310C080912728C5
S1131660909128288630910549F480E09BE02091F0
S11316700A2930910B29FC0126A337A310923A289A
S11316808091352890913628009761F480EE96E099
S113169020E2FC01258381E090E08093352890933B
S11316A036284AC38091272890912828009709F06A
S11316B043C3109235281092362880EE96E020E23B
S11316C0FC0126838091332890913428009721F0DF
S11316D08130910541F00CC081E090E08093332883
S11316E09093342805C010923328109234280000B7
S11316F023C380911F288F5F80931F288091272800
S1131700909128288830910509F05BC080911F28AA
S1131710282F30E08091EE289091EF282817390780
S113172009F00CC310921F2881E08093292880912E
S11317305827909159278D7F809358279093592744
S113174080E09BE020E03BE0F9012181207F2360E1
S1131750FC01218380E09BE02091E6283091E7287A
S1131760FC0126A337A380E09BE02091E828309178
S1131770E928FC0120A731A78091EF27882F90E06A
S113178081709070009751F480EA96E020EA36E088
S1131790F90120812E7FFC012083D0C280EA96E0EB
S11317A020EA36E0F90121812160FC01218380E0F7
S11317B091E020E031E0F90120A12068FC0120A3A0
S11317C0BDC280912728909128288031910509F085
S11317D05BC080911F28282F30E08091F2289091DF
S11317E0F3282817390709F0A9C210921F2881E0AD
S11317F08093292880915827909159278D7F809331
S113180058279093592780E09BE020E03BE0F901C2
S11318102181207F2360FC01218380E09BE02091D3
S1131820E6283091E728FC0126A337A380E09BE05B
S11318302091E8283091E928FC0120A731A7809164
S1131840EF27882F90E082709070009751F480EA1F
S113185096E020EA36E0F90120812E7FFC01208306
S11318606DC280EA96E020EA36E0F9012181216028
S1131870FC01218380E091E020E031E0F90120A126
S11318802068FC0120A35AC280912728909128281F
S11318908231910509F05BC080911F28282F30E028
S11318A08091F6289091F7282817390709F046C245
S11318B010921F2881E080932928809158279091C5
S11318C059278D7F809358279093592780E09BE078
S11318D020E03BE0F9012181207F2360FC0121838A
S11318E080E09BE02091E6283091E728FC0126A3C4
S11318F037A380E09BE02091E8283091E928FC019F
S113190020A731A78091EF27882F90E084709070F2
S1131910009751F480EA96E020EA36E0F90120814C
S11319202E7FFC0120830AC280EA96E020EA36E09A
S1131930F90121812160FC01218380E091E020E014
S113194031E0F90120A12068FC0120A3F7C18091B6
S11319502728909128288431910509F05BC0809153
S11319601F28282F30E08091FA289091FB2828170F
S1131970390709F0E3C110921F2881E080932928D8
S113198080915827909159278D7F80935827909361
S1131990592780E09BE020E03BE0F9012181207F92
S11319A02360FC01218380E09BE02091E6283091B4
S11319B0E728FC0126A337A380E09BE02091E828D8
S11319C03091E928FC0120A731A78091EF27882FC7
S11319D090E088709070009751F480EA96E020EAD5
S11319E036E0F90120812E7FFC012083A7C180EA23
S11319F096E020EA36E0F90121812160FC0121838F
S1131A0080E091E020E031E0F90120A12068FC01B0
S1131A1020A394C18091272890912828009709F049
S1131A2064C080911F28282F30E080910029909174
S1131A3001292817390709F081C180912328909141
S1131A4024280196809323289093242810921F28F9
S1131A5081E08093292880915827909159278D7F80
S1131A60809358279093592780E09BE020E03BE047
S1131A70F9012181207F2360FC01218380E09BE028
S1131A802091E6283091E728FC0126A337A380E0C3
S1131A909BE02091E8283091E928FC0120A731A798
S1131AA080E09BE020E03BE0F90121812064FC011F
S1131AB0218380E09BE02091E8283091E928FC0113
S1131AC024A735A780EA96E020EA36E0F9012181CF
S1131AD02160FC01218380E091E020E031E0F90104
S1131AE020A12068FC0120A329C18091272890917E
S1131AF028288631910509F05AC080911F28282F83
S1131B0030E080910429909105290197281739071D
S1131B1009F014C110921F2880E09BE04091022933
S1131B20509103296091E8287091E9282091E628D2
S1131B303091E7287B01E21AF30A9701240F351F3D
S1131B40FC0120A731A780E09BE020E03BE0F90105
S1131B502181207F2360FC0121838091582790916B
S1131B6059278D7F809358279093592787E090E0D9
S1131B70809320289093212881E080932928109233
S1131B8027281092282880916A29823031F482E033
S1131B9090E0809327289093282880E091E020E02B
S1131BA031E0F90120A12068FC0120A3C7C0809185
S1131BB02728909128288230910509F054C08091FB
S1131BC01F28282F30E08091082990910929019736
S1131BD02817390709F0B2C010921F2880E09BE053
S1131BE040910629509107296091E8287091E928CD
S1131BF02091E6283091E7287B01E21AF30A970145
S1131C00240F351FFC0120A731A780E09BE020E0D2
S1131C103BE0F9012181207F2360FC012183809135
S1131C205827909159278D7F80935827909359274F
S1131C3087E090E0809320289093212881E080938E
S1131C40292886E090E080932728909328281092F2
S1131C506A2980E091E020E031E0F90120A12068C8
S1131C60FC0120A36BC080912728909128288630FE
S1131C70910509F063C080911F28282F30E08091DE
S1131C800C2990910D292817390709F057C0109293
S1131C901F2881E080932928809158279091592703
S1131CA08D7F809358279093592780E09BE020E014
S1131CB03BE0F9012181207F2360FC01218380E046
S1131CC09BE02091E6283091E728FC0126A337A366
S1131CD080E09BE02091E8283091E928FC0120A7CE
S1131CE031A788E090E0809327289093282880915A
S1131CF0EF27882F90E081709070009751F480EA6C
S1131D0096E020EA36E0F90120812E7FFC01208351
S1131D1015C080EA96E020EA36E0F90121812160CD
S1131D20FC01218380E091E020E031E0F90120A171
S1131D302068FC0120A302C0000001C00000DF9164
S1131D40CF91FF91EF91BF91AF919F918F917F912F
S1131D506F915F914F913F912F911F910F91FF9040
S1131D60EF900F9000923B000F90009239000F907B
S1131D70009238000F900FBE0F901F9018951F927D
S1131D800F920FB60F92009038000F921124CF9348
S1131D90DF93CDB7DEB70000DF91CF910F900092B3
S1131DA038000F900FBE0F901F9018951F920F923E
S1131DB00FB60F92009038000F92009039000F92E6
S1131DC000903B000F921124EF92FF920F931F9308
S1131DD02F933F934F935F936F937F938F939F932F
S1131DE0AF93BF93EF93FF93CF93DF93CDB7DEB75A
S1131DF080E098E0FC018181882394F480E098E0FD
S1131E0020E038E0F90121812F77FC01218380E46F
S1131E1096E020E436E0F90122812860FC01228367
S1131E208091592890915A28009709F083C0809195
S1131E302528909126288730910508F07BC0809151
S1131E40552890915628A0915728B091582800976A
S1131E50A105B10509F4BDC080915528909156287B
S1131E60A0915728B091582883309105A105B10558
S1131E70A0F18091552890915628A0915728B091AF
S1131E805828B695A7959795879580935B28909346
S1131E905C2820915B2830915C2880E098E0FC016C
S1131EA080A591A52817390758F080E098E0FC0137
S1131EB080A591A59695879580935B2890935C283F
S1131EC080915B2890915C28009769F481E090E010
S1131ED080935B2890935C2806C081E090E0809317
S1131EE05B2890935C2880E098E020E038E0F901DA
S1131EF040A551A520915B2830915C28240F351F03
S1131F00FC0120A731A780E098E020E038E0F90147
S1131F1046A157A120915B2830915C28240F351FDE
S1131F20FC0126A337A381E090E080935928909385
S1131F305A284FC0809125289091262887309105F2
S1131F4008F047C080E098E020E038E0F90140A5BF
S1131F5051A520915B2830915C287A01E21AF30A9A
S1131F609701FC0120A731A780E098E020E038E049
S1131F70F90146A157A120915B2830915C287A0190
S1131F80E21AF30A9701FC0126A337A320915528EE
S1131F9030915628409157285091582880915B28B9
S1131FA090915C28CC01A0E0B0E079018A01E81AA4
S1131FB0F90A0A0B1B0BD801C7018093552890938B
S1131FC05628A0935728B093582810925928109255
S1131FD05A28209125283091262880911029909103
S1131FE0112901972817390709F07EC080E496E08B
S1131FF020E436E0F90121812160FC012183109263
S113200045281092462884E199E20E94F4268091A2
S11320105D2890915E28009731F481E090E08093F0
S11320205D2890935E288091582790915927886065
S113203080935827909359278091022590910325E6
S1132040009709F07BC08091EE23882329F08091CA
S1132050EF238F5F8093EF238091EF238C3051F433
S113206082E090E080934528909346281092EE23D6
S11320701092EF2380911D29882309F05FC080917D
S11320801C2995E0692F0E94E439892F8823E1F403
S113209080E496E020E436E0F90121812260FC012D
S11320A0218380E496E020E436E0F9012181246074
S11320B0FC01218381E090E0809345289093462899
S11320C081E08093EE233AC080E496E020E436E099
S11320D0F90121812260FC01218381E090E0809359
S11320E04528909346282AC02091252830912628F7
S11320F0809110299091112928173907F9F4109229
S113210025281092262880E496E020E436E0F901A0
S113211022812760FC01228380E098E020E038E0FF
S1132120F90121812068FC01218380E496E020E408
S113213036E0F90121812860FC0121838091252862
S11321409091262801968093252890932628DF9144
S1132150CF91FF91EF91BF91AF919F918F917F911B
S11321606F915F914F913F912F911F910F91FF902C
S1132170EF900F9000923B000F90009239000F9067
S1132180009238000F900FBE0F901F9018951F9269
S11321900F920FB60F92009038000F921124CF9334
S11321A0DF93CDB7DEB70000DF91CF910F9000929F
S11321B038000F900FBE0F901F9018951F920F922A
S11321C00FB60F92009038000F9200903B000F92D0
S11321D011242F933F938F939F93EF93FF93CF9368
S11321E0DF93CDB7DEB780E093E020916B29309187
S11321F06C29FC01208F318F8091612881708823A4
S113220079F480916D29882F90E08E5B9F4DFC01BD
S11322108081882F90E080936B2990936C290EC065
S113222080916D29882F90E0885F9F4DFC0180810B
S1132230882F90E080936B2990936C2980916B296F
S113224090916C29982F882780936B2990936C29FF
S113225080916D298F5F80936D29DF91CF91FF91DC
S1132260EF919F918F913F912F910F9000923B009E
S11322700F90009238000F900FBE0F901F9018958A
S11322801F920F920FB60F92009038000F92009099
S11322903B000F9211242F933F938F939F93EF93BF
S11322A0FF93CF93DF93CDB7DEB780E099E020E0D2
S11322B039E0F90120812360FC0120830000DF91D3
S11322C0CF91FF91EF919F918F913F912F910F901B
S11322D000923B000F90009238000F900FBE0F90B9
S11322E01F9018951F920F920FB60F92009038000E
S11322F00F92009039000F9200903B000F9211242E
S11323002F933F934F935F936F937F938F939F93F9
S1132310AF93BF93EF93FF93CF93DF93CDB7DEB724
S11323202797CDBFDEBF80E099E0FC01108280E0FA
S11323309AE0FC01108280E09AE021E030E0FC01A8
S113234020A331A380E099E021E030E0FC0120A348
S113235031A3809158279091592782608093582700
S11323609093592710926D298091352890913628A1
S1132370009721F08130910501F13FC080EE96E095
S113238028E0FC012583809133289091342800971C
S113239021F08130910541F00FC0198280EE96E062
S11323A020E1FC01258308C082E0898380EE96E069
S11323B020E1FC012683000020C080EE96E028E0A6
S11323C0FC0126838091332890913428009721F0D2
S11323D08130910549F010C081E0898380EE96E058
S11323E020E1FC01258308C083E0898380EE96E028
S11323F020E1FC01268300000000809127289091B1
S113240028288230910509F08BC080910225909193
S11324100325009709F084C0809104259091052537
S11324208130910509F07CC080914528909146281F
S113243081309105E1F480911C29882F90E020914E
S11324404328222F30E0022E02C0880F991F0A94DD
S1132450E2F78B8380914328893030F480914328BC
S11324608F5F80934328EFC010924328ECC0809183
S113247045289091462882309105E1F480911B29EA
S1132480882F90E020914428222F30E0022E02C0B1
S1132490880F991F0A94E2F78B83809144288A302D
S11324A030F4809144288F5F80934428CCC01092EC
S11324B04428C9C08091042890910528A091062839
S11324C0B09107288C839D83AE83BF838C819D81CB
S11324D0AE81BF8120914228222F30E0022E04C019
S11324E0880F991FAA1FBB1F0A94D2F78C839D8360
S11324F0AE83BF838C819D81AE81BF818B2F992751
S1132500AA27BB278B83809142288D3130F4809198
S113251042288F5F8093422896C01092422893C02D
S113252080910225909103258130910509F08BC09B
S113253080912728909128288230910509F083C042
S113254020912328309124288091122990911329D5
S1132550A901481B590BCA0180589F4F969587952E
S1132560929582958F7089279F708927CC01A0E06E
S1132570B0E0BC01CD010E940A38DC01CB01BC01F2
S1132580CD010E944738DC01CB01BC01CD010E9482
S1132590DE37DC01CB018A8320913B2830913C2833
S11325A08A81882F90E0880F991F880F991F820FC6
S11325B0931FFC0180819181A281B381809365295D
S11325C090936629A0936729B09368298091232862
S11325D090912428282F8091122990911329922FC9
S11325E0981B2A8180EE289F802D1124890F805802
S11325F0809369298091652990916629A091672922
S1132600B091682920916929222F30E0022E04C05C
S1132610880F991FAA1FBB1F0A94D2F780936529BC
S113262090936629A0936729B093682980916529BE
S113263090916629A0916729B09168298B2F9927D9
S1132640AA27BB278B838091272890912828823042
S1132650910551F180912728909128288631910580
S113266019F120913728309138288981882F90E0FA
S1132670820F931FFC01808180933928809139282F
S11326808B838B81882F90E020913A28222F30E091
S1132690022E02C0880F991F0A94E2F78B8380915F
S11326A03A288F5F80933A288B8188235CF080EEF0
S11326B096E021E0FC012683809161288E7F80933F
S11326C061280AC080EE96E021E0FC012583809118
S11326D0612881608093612880EE96E020E4FC010B
S11326E026832796CDBFDEBFDF91CF91FF91EF9177
S11326F0BF91AF919F918F917F916F915F914F9116
S11327003F912F910F9000923B000F90009239005F
S11327100F90009238000F900FBE0F901F901895E5
S1132720CF93DF93CDB7DEB789E790E061E00E94F5
S11327300737FFCFCF93DF930F92CDB7DEB780EA91
S113274099E0FC018181882F90E08072907000975D
S113275001F180EA99E0FC018181882F90E0807486
S11327609070009749F080EA99E020EA39E0F90195
S113277021812064FC01218386E698E22DEF34E276
S1132780B9010E945F21898380EA99E069810E94EE
S1132790BF1D0F90DF91CF9108951F920F920FB636
S11327A00F92009038000F92009039000F92009021
S11327B03B000F9211242F933F934F935F936F939A
S11327C07F938F939F93AF93BF93EF93FF93CF9395
S11327D0DF930F92CDB7DEB780EA99E0FC018081E8
S11327E089838DE597E22FE035E2B90149810E94A2
S11327F019218091582790915927846080935827F4
S1132800909359270F90DF91CF91FF91EF91BF9152
S1132810AF919F918F917F916F915F914F913F9174
S11328202F910F9000923B000F90009239000F906F
S1132830009238000F900FBE0F901F9018951F92B2
S11328400F920FB60F92009038000F9211248F93BD
S11328509F93CF93DF930F920F92CDB7DEB7898109
S11328609A81019689839A830F900F90DF91CF917B
S11328709F918F910F90009238000F900FBE0F9090
S11328801F901895CF93DF93CDB7DEB72897CDBFB0
S1132890DEBF19821A821B821E821C821D828091D5
S11328A00F25882F90E08F83988744C08F81988567
S11328B0835A984DFC0180818A3241F48F81988536
S11328C08B8381E090E08C839D832FC08C819D81DC
S11328D08130910551F58F819885835A984DFC017B
S11328E08081843211F58F8198859B81F92FF81BA3
S11328F08F2F8F5F8B838F8198858E838B81882F19
S113290090E00E94433A89839A838E81882F90E0D5
S1132910AC01435A584D8B81282F30E089819A812C
S1132920BA01A9010E94723B0AC08F819885019760
S11329308F8398878F81988599230CF0B7CF8981ED
S11329409A812896CDBFDEBFDF91CF910895CF93B2
S1132950DF93CDB7DEB72E97CDBFDEBF809158276A
S11329609091592782709070009709F418C480914F
S113297058279091592784709070009709F4A0C249
S113298080910F25882309F491C280910F258F37F8
S113299039F48DE597E22FE035E2B9010E94D618AB
S11329A00E9442148093F0239093F1238091F023AA
S11329B09091F123FC018081843209F077C28091E7
S11329C0F0239091F1230196FC0180818D3209F06E
S11329D01EC28091F0239091F1230296FC01808124
S11329E0882F90E08632910509F454C2873291050C
S11329F064F482329105D1F08532910509F474C1F1
S1132A008132910509F4ECC14AC28932910509F475
S1132A1093C18A3291050CF43FC28B32910509F4BB
S1132A2092C18C32910509F495C139C28091F02389
S1132A309091F1230396FC01808191818093DD279D
S1132A409093DE278091F0239091F1230596FC0169
S1132A50808191818093DF279093E0278091F023F8
S1132A609091F1230796FC01808191818093E12765
S1132A709093E2278091F0239091F1230996FC0131
S1132A8080819181A281B3818093E3279093E4278D
S1132A90A093E527B093E6278091F0239091F1234A
S1132AA00D96FC0180819181A281B3818093EC27F2
S1132AB09093ED27A093EE27B093EF278091F02316
S1132AC09091F1234196FC0180818093EF278091BE
S1132AD0F0239091F1239C012D5E3F4F80EF97E20C
S1132AE040E1F90100802F5F3F4FFC010082019615
S1132AF041504423B1F78091F0239091F1239C013C
S1132B002D5D3F4F84E098E248E0F90100802F5F9B
S1132B103F4FFC010082019641504423B1F788E005
S1132B208093EE2788EE93E08093E8279093E9273B
S1132B3080EB94E08093EA279093EB278AE08093DC
S1132B40E72785E49EE1A5E8B1E480930C289093FF
S1132B500D28A0930E28B0930F2884EC91EAAFE4DB
S1132B60BDE98093102890931128A0931228B09364
S1132B70132882ED98EDABE5BBE98093142890937C
S1132B801528A0931628B093172880EC9FE5A5E696
S1132B90BEEE8093182890931928A0931A28B09316
S1132BA01B288AEC8093002889EF809301288FE901
S1132BB0809302288CEA809303288091F0279091D7
S1132BC0F127A091F227B091F3270097A105B10551
S1132BD061F480EE9EE2A0E0B0E08093F027909351
S1132BE0F127A093F227B093F3278091F4279091D3
S1132BF0F527A091F627B091F7270097A105B10515
S1132C0061F480EC9DE5A0E0B0E08093F42790931C
S1132C10F527A093F627B093F7278091F827909192
S1132C20F927A091FA27B091FB270097A105B105D8
S1132C3061F480EA9CE8A0E0B0E08093F8279093E8
S1132C40F927A093FA27B093FB278091FC27909152
S1132C50FD27A091FE27B091FF270097A105B1059C
S1132C6061F480E89BEBA0E0B0E08093FC279093B4
S1132C70FD27A093FE27B093FF278DED97E289836C
S1132C809A8389819A8165E070E04FE350E00E9465
S1132C90873B8FEC91E0FC0180818823D4F38DED98
S1132CA097E26FE30E94D2218B879C87CE010B961B
S1132CB089839A8389819A8166E470E042E050E0D6
S1132CC00E94873B8FEC91E0FC0180818823D4F340
S1132CD080915827909159278F7D809358279093FE
S1132CE059270E949013DBC08FE390E0FC018081A0
S1132CF088230CF4D3C08091F0239091F1230396A0
S1132D00FC018081882351F08091F0239091F1237C
S1132D100396FC018081813009F0C0C08091F023CA
S1132D209091F1230396FC018081882F90E0809399
S1132D30022590930325B2C060E573EC80E090E037
S1132D400E94862FACC06FEF7FEFCB010E94862FCD
S1132D500000A5C08091F0239091F1230396FC011B
S1132D608081918180931025909311258091102565
S1132D70909111250E942F2880E195E28B839C83FA
S1132D808B819C816EE470E042E050E00E94873BBE
S1132D908FEC91E0FC0180818823D4F380E195E2FB
S1132DA062E00E94D2218D879E87CE010D968B838F
S1132DB09C838B819C8162E570E042E050E00E943C
S1132DC0873B8FEC91E0FC0180818823D4F38091D0
S1132DD05827909159279D7F80935827909359277E
S1132DE08091F0239091F1239C012D5F3F4F86E168
S1132DF099E24AE0F90100802F5F3F4FFC01008215
S1132E00019641504423B1F70E94901348C0809129
S1132E10F0239091F1230196FC0180818C3209F01A
S1132E203EC08091F0239091F1230296FC018081B1
S1132E30883251F480915827909159278068809363
S1132E405827909359272BC08091F0239091F12318
S1132E500296FC018081823251F48091582790912E
S1132E6059278061809358279093592718C08091DF
S1132E70F0239091F1230296FC0180818C3279F445
S1132E808091582790915927916080935827909367
S1132E90592705C0000003C0000001C000008DE5F3
S1132EA097E22FE035E2B9010E94D61880915827A5
S1132EB0909159278B7F809358279093592770C1FD
S1132EC0809158279091592782709070009709F447
S1132ED067C186E698E22DEF34E2B90144E20E942C
S1132EE019218091582790915927887090700097E4
S1132EF091F18091FD246AE00E94011981309105CD
S1132F0009F02BC184E199E28D839E8386E698E2E1
S1132F102DEF34E2B9014BE20E94192186E698E2D2
S1132F202DEF34E2B90141E20E94192186E698E2CC
S1132F304DEF54E22D813E81BA01A9012AE00E949D
S1132F4020198091582790915927877F809358277B
S1132F509093592702C180915827909159278071E5
S1132F609070009791F18091FD246FE30E94011904
S1132F708130910509F0F1C08DED97E28F83988738
S1132F8086E698E22DEF34E2B9014BE20E94192162
S1132F9086E698E22DEF34E2B90142E20E9419215B
S1132FA086E698E24DEF54E22F813885BA01A901F3
S1132FB02FE30E94201980915827909159278F7EE2
S1132FC08093582790935927C8C08091582790918F
S1132FD05927807290700097D1F08091FD2461E0B0
S1132FE00E9401198130910509F0B7C086E698E284
S1132FF02DEF34E2B9014CE20E94192186E698E2F1
S11330002DEF34E2B90142E20E941921A6C0809159
S113301058279091592780749070009719F18091E6
S1133020FD2461E00E9401198130910509F095C0E9
S113303086E698E22DEF34E2B9014BE20E941921B1
S113304086E698E22DEF34E2B90143E20E941921A9
S113305080915827909159278F7B8093582790937C
S113306059277BC080915827909159278078907078
S1133070009751F186E698E22DEF34E2B9014BE274
S11330800E94192186E698E22DEF34E2B90148E264
S11330900E94192186E698E22DEF34E2B90141E05D
S11330A00E94192186E698E22DEF34E2B90142E04C
S11330B00E94192180915827909159278F778093E6
S11330C058279093592749C08091582790915927A0
S11330D080709170009749F180E195E289879A8721
S11330E086E698E22DEF34E2B9014BE20E94192101
S11330F086E698E22DEF34E2B9014CE20E941921F0
S113310086E698E24DEF54E229853A85BA01A90191
S113311022E00E94201980915827909159279E7F80
S1133120809358279093592718C0809158279091DD
S1133130592780709270009781F086E698E22DEF0F
S113314034E2B9014CE20E94192186E698E22DEF9F
S113315034E2B9014CE20E9419218091FD248130AE
S1133160B1F086E698E22DEF34E2B9014AE20E941A
S11331701921809158279091592782709070009757
S113318011F00E949A138091FD24882391F786E61A
S113319098E22DEF34E2B9010E94D61801C0000074
S11331A02E96CDBFDEBFDF91CF910895CF93DF93ED
S11331B000D000D0CDB7DEB78B839C836D837E8334
S11331C08D819E81FC0180818A8319820CC0898152
S11331D0882F90E02B813C81820F931FFC01108289
S11331E089818F5F898399818A81981780F38D8182
S11331F09E81FC0110822696CDBFDEBFDF91CF9168
S11332000895CF93DF930F920F92CDB7DEB78983E2
S11332106A838981882F90E02BE730E0281B390BE3
S11332208A81882F90E08217930718F481E090E058
S113323002C080E090E00F900F90DF91CF9108954D
S1133240CF93DF93CDB7DEB72897CDBFDEBF8A8398
S11332509B836C837D834E835F832887198213C08D
S11332608981882F90E02E813F81820F931FFC017A
S113327040818A819B812C813D81B9010E94192161
S113328089818F5F898399818885981748F3289667
S1133290CDBFDEBFDF91CF910895CF93DF930F921F
S11332A0CDB7DEB78FE390E0FC0180818983F89489
S11332B089810F90DF91CF910895CF93DF930F927F
S11332C0CDB7DEB789838FE390E02981FC012083A9
S11332D00F90DF91CF910895CF93DF930F920F92C8
S11332E0CDB7DEB78A830E944D19898380E590E0CB
S11332F020E530E0F90130812A81232BFC01208371
S113330089810E945D190F900F90DF91CF910895EC
S1133310CF93DF930F92CDB7DEB789830F90DF9100
S1133320CF910895CF93DF930F92CDB7DEB7898302
S11333308981883021F089810E946C1903C08981B8
S11333400E9488190F90DF91CF910895CF93DF9356
S11333500F92CDB7DEB7898380E590E0FC019181BF
S11333608981982381E0992309F480E00F90DF910B
S1133370CF910895CF93DF930F92CDB7DEB78983B2
S1133380000089810E94A619982F81E0892788234B
S1133390C1F70F90DF91CF910895CF93DF9300D0C1
S11333A0CDB7DEB780E790E089839A831B820DC096
S11333B089819A812FEFFC01208389819A8101966A
S11333C089839A838B818F5F8B838B81873080F392
S11333D02396CDBFDEBFDF91CF910895CF93DF93C6
S11333E000D00F92CDB7DEB78A839B836C830E9493
S11333F04D1989838A819B8180599F4F2A813B8102
S113340020593F4FF9012081322F2C81209523230D
S1133410FC01208389810E945D192496CDBFDEBF03
S1133420DF91CF910895CF93DF9300D00F92CDB762
S1133430DEB78A839B836C830E944D1989838A81BA
S11334409B8180599F4F2A813B8120593F4FF9012D
S113345030812C81232BFC01208389810E945D19FA
S11334602496CDBFDEBFDF91CF910895CF93DF9334
S11334700F920F92CDB7DEB78A838A81863019F412
S113348088E1898301C0198282E00E94A619982FDD
S113349081E08927882331F082E00E94921982E03A
S11334A00E94BA198981282F236084E490E0622F56
S11334B00E940737000080E090E060E40E94EE196B
S11334C00F900F90DF91CF910895CF93DF93CDB7F5
S11334D0DEB780E090E060E40E94131A84E490E098
S11334E060E00E940737DF91CF910895CF93DF9377
S11334F000D000D0CDB7DEB78A839B836C834D8325
S11335005E8319821EC08C81882F90E02981222F2E
S113351030E0022E02C0959587950A94E2F78170F7
S11335209070882359F08981882F90E040962A81F1
S11335303B81820F931F2D81FC01208389818F5F42
S1133540898389818830F8F28D819E8180709170A1
S11335500097D1F08D819E8180709270009739F030
S11335608A819B8105962C81FC01208306C08A8177
S11335709B8106962C81FC0120838A819B81019684
S11335802C81FC01208306C08A819B8102962C81B8
S1133590FC0120832696CDBFDEBFDF91CF91089535
S11335A0CF93DF930F920F92CDB7DEB789839A83BF
S11335B089819A81FC018481282F206189819A81E3
S11335C0FC0124830F900F90DF91CF910895CF9346
S11335D0DF93CDB7DEB72797CDBFDEBF89839A834C
S11335E06B837C834D835E832F839B818D81982B9A
S11335F08F81882311F088E001C080E0292F282BD7
S113360089819A81FC0125832796CDBFDEBFDF9196
S1133610CF910895CF93DF930F920F92CDB7DEB77A
S113362089839A8389819A81FC018481282F286067
S113363089819A81FC0124830F900F90DF91CF91AF
S11336400895CF93DF9300D00F92CDB7DEB789836F
S11336509A836B837C8389819A81FC018581982F6D
S11336609F738B81292F282B89819A81FC012583C3
S11336702496CDBFDEBFDF91CF910895CF93DF9322
S11336800F920F92CDB7DEB789839A8389819A818D
S1133690FC018181882F90E08072907021E0009776
S11336A009F420E0822F0F900F90DF91CF910895BD
S11336B0CF93DF930F920F92CDB7DEB789839A83AE
S11336C089819A81FC018181882F90E080789070B3
S11336D021E0009709F420E0822F0F900F90DF91F2
S11336E0CF910895CF93DF93CDB7DEB780E894E808
S11336F0AEE1B0E0BC01CD01DF91CF910895CF934D
S1133700DF930F92CDB7DEB719820E94721BDC01E2
S1133710CB012981222F30E0022E04C0B695A79553
S1133720979587950A94D2F7BC01CD010F90DF914C
S1133730CF910895CF93DF93CDB7DEB70E947F1B5F
S1133740DC01CB01BC01CD01DF91CF910895CF9372
S1133750DF93CDB7DEB70E949A1BDC01CB01BC011D
S1133760CD01DF91CF910895CF93DF930F92CDB721
S1133770DEB789838981869586958695882F90E022
S1133780C096880F991F82959295907F9827807F85
S113379098270F90DF91CF910895CF93DF930F92E5
S11337A0CDB7DEB789838981882F90E09C0127708B
S11337B0307081E090E0022E02C0880F991F0A94B5
S11337C0E2F70F90DF91CF910895CF93DF930F929B
S11337D00F92CDB7DEB789839A8389819A8128E0D5
S11337E0803A920729F483E090E060E10E94EE19A8
S11337F089819A8128E0803B920729F483E090E054
S113380060E20E94EE1989819A8129E0803A920748
S113381029F484E090E060E10E94EE1989819A81A4
S113382029E0803B920729F484E090E060E20E9462
S1133830EE1989819A812AE0803A920729F485E079
S113384090E060E10E94EE1989819A812AE0803B30
S1133850920729F485E090E060E20E94EE198981E4
S11338609A812BE0803A920729F486E090E060E1A7
S11338700E94EE1989819A812BE0803B920729F4FA
S113388086E090E060E20E94EE190F900F90DF91C5
S1133890CF910895CF92DF92EF92FF920F931F93EF
S11338A0CF93DF9300D00F92CDB7DEB789839A838D
S11338B06B837C8389819A810E94E51B89819A812B
S11338C060E070E00E94211B8B819C81DC011496D6
S11338D04D915C9115978B819C81FC0126813781E8
S11338E08B819C81DC011896EC9189819A81BA01C3
S11338F0A9012E2F0E94E71A8B819C81FC01C080B4
S1133900D180E280F3800E94A71B8B019C018981F6
S11339109A81B701A6010E94091F89819A810E9498
S11339200A1B89819A810E94D01A2496CDBFDEBFDA
S1133930DF91CF911F910F91FF90EF90DF90CF9087
S11339400895CF92DF92EF92FF920F931F93CF933C
S1133950DF93CDB7DEB72597CDBFDEBF8A839B83C8
S11339606C837D838A819B810E94E51B8A819B8174
S113397060EC70E00E94211B8C819D81FC0184819C
S1133980813031F08C819D81FC018481833059F434
S11339908A819B81FC018581282F22608A819B81F9
S11339A0FC0125830AC08A819B81FC018581282F23
S11339B02D7F8A819B81FC0125838C819D81FC0163
S11339C08481823039F08C819D81FC018481833033
S11339D009F0B0C08A819B81F8E0803A9F0781F4A6
S11339E081E1898389810E94B41B8C0189810E94B1
S11339F0CD1B282FC801622F40E453E00E94761AA1
S1133A008A819B8128E0803B920781F485E1898348
S1133A1089810E94B41B8C0189810E94CD1B282FAF
S1133A20C801622F40E453E00E94761A8A819B8188
S1133A30E9E0803A9E0781F489E1898389810E94C3
S1133A40B41B8C0189810E94CD1B282FC801622FD1
S1133A5040E453E00E94761A8A819B81F9E0803B1E
S1133A609F0781F48DE1898389810E94B41B8C01B5
S1133A7089810E94CD1B282FC801622F40E453E0A6
S1133A800E94761A8A819B812AE0803A920781F407
S1133A9081E2898389810E94B41B8C0189810E94FF
S1133AA0CD1B282FC801622F40E453E00E94761AF0
S1133AB08A819B81EAE0803B9E0781F485E28983C9
S1133AC089810E94B41B8C0189810E94CD1B282FFF
S1133AD0C801622F40E453E00E94761A8A819B81D8
S1133AE0FBE0803A9F0781F489E2898389810E94FF
S1133AF0B41B8C0189810E94CD1B282FC801622F21
S1133B0040E453E00E94761A8A819B812BE0803B3B
S1133B10920781F48DE2898389810E94B41B8C0110
S1133B2089810E94CD1B282FC801622F40E453E0F5
S1133B300E94761A8C819D81FC01C080D180E28034
S1133B40F3800E94A71B8B019C018A819B81B70192
S1133B50A6010E94CF208A819B810E940A1B8A8130
S1133B609B810E94D01A2596CDBFDEBFDF91CF91F5
S1133B701F910F91FF90EF90DF90CF900895CF9316
S1133B80DF9300D0CDB7DEB789839A836B830000BF
S1133B9089819A810E943E1B982F81E0892788237E
S1133BA0B9F789819A812B81FC01208380E090E020
S1133BB02396CDBFDEBFDF91CF910895CF93DF93DE
S1133BC00F920F92CDB7DEB789839A830000898163
S1133BD09A810E94581B982F81E089278823B9F77E
S1133BE089819A81FC0180810F900F90DF91CF91A0
S1133BF00895CF93DF9300D00F92CDB7DEB76983DA
S1133C007A838B839C8389819A81AB81BC81803840
S1133C1025E2920720E0A20720E0B20709F440C0A1
S1133C20813825E2920720E0A20720E0B207C8F419
S1133C30803629E0920720E0A20720E0B20761F174
S1133C40803C22E1920720E0A20720E0B20731F194
S1133C50803B24E0920720E0A20720E0B207D1F0E5
S1133C6027C0803026E9920720E0A20720E0B207AF
S1133C70D9F0803021EE920720E0A20720E0B207BD
S1133C80A9F080302BE4920720E0A20720E0B207DD
S1133C9049F00EC080E00DC081E00BC082E009C095
S1133CA083E007C084E005C085E003C086E001C06E
S1133CB08FEF2496CDBFDEBFDF91CF910895CF93D0
S1133CC0DF93CDB7DEB72597CDBFDEBF89839A8357
S1133CD06B837C834D832B8189819A81FC012683AC
S1133CE08B819C81892F9927982F9F708D81829534
S1133CF0807F292F282B89819A81FC01278325968F
S1133D00CDBFDEBFDF91CF910895EF92FF920F9365
S1133D101F93CF93DF93CDB7DEB76597CDBFDEBFDB
S1133D208C879D874E875F87688B798B0A8B1B8B6B
S1133D302C8B3D8B19821A828E859F85A889B9891F
S1133D40BC01CD010E94F91D8B838A899B89AC89B2
S1133D50BD89803824E892072EE1A20720E0B2074B
S1133D60C9F48B81882F90E0880F991F84599D4F47
S1133D708C839D838C819D818C01F801E590F49066
S1133D808F01EE82FF820C831D838E819F81898344
S1133D909A8324C08A899B89AC89BD898030F8E4E0
S1133DA09F07F8EEAF07F1E0BF07C1F48B81882FBE
S1133DB090E0880F991F86589D4F8887998788853A
S1133DC099858C01F801E590F4908F01EA86FB86D1
S1133DD0088719878A859B8589839A838B818F3F7E
S1133DE071F029818C859D85FC01278389819A81C5
S1133DF0892F9927282F8C859D85FC01268365961C
S1133E00CDBFDEBFDF91CF911F910F91FF90EF9057
S1133E100895EF92FF920F931F93CF93DF93CDB743
S1133E20DEB76F97CDBFDEBF8E8B9F8B488F598FC8
S1133E306A8F7B8F0C8F1D8F2E8F3F8F8C8D9D8D66
S1133E40AE8DBF8D689412F8B695A7959795879512
S1133E501694D1F78A8B9B8BAC8BBD8B8C8D9D8DEF
S1133E60AE8DBF8D072E76E1B695A795979587956C
S1133E707A95D1F7702D8E879F87A88BB98B8E8901
S1133E809F89FC018481882F90E084709070009752
S1133E90C1F48A899B89AC89BD89B695A795979504
S1133EA087958A8B9B8BAC8BBD8B8E859F85A889D0
S1133EB0B989B695A795979587958E879F87A88B7F
S1133EC0B98B8A899B89AC89BD89288D398D4A8DA6
S1133ED05B8D82179307A407B50768F08E859F85CD
S1133EE0A889B989288D398D4A8D5B8D28173907A2
S1133EF04A075B0710F480E048C18E899F89FC0162
S1133F008481882F90E084709070009761F4888D8C
S1133F10998DAA8DBB8D880F991FAA1FBB1F888FEF
S1133F20998FAA8FBB8F8FEF90E0A0E0B0E08E83D3
S1133F309F83A887B9878C8D9D8DAE8DBF8D288D6D
S1133F40398D4A8D5B8DBC01CD010E94F039DA01B7
S1133F50C9018A879B87AC87BD8789EF898328C07D
S1133F602A853B854C855D858E819F81A885B98591
S1133F70281739074A075B07F8F08E819F81A885C7
S1133F80B985880F991FAA1FBB1F8E839F83A8879B
S1133F90B98789818D3F4CF48E819F81A885B9852D
S1133FA081608E839F83A887B98789818F5F898386
S1133FB089818730ACF201C00000898188230CF02C
S1133FC08EC02C8D3D8D4E8D5F8D888D998DAA8DE3
S1133FD0BB8D880F991FAA1FBB1F880F991FAA1F8B
S1133FE0BB1F880F991FAA1FBB1F79018A01E81AFA
S1133FF0F90A0A0B1B0BD801C7018C8F9D8FAE8F5A
S1134000BF8F89818E3FA4F58C8D9D8DAE8DBF8D24
S11340102981332727FD30954DEF5FEF8A01021B7D
S1134020130B98017C018D0104C0EE0CFF1C001FD2
S1134030111F2A95D2F7A8019701888D998DAA8D11
S1134040BB8DB695A79597958795820F931FA41F4F
S1134050B51F288D398D4A8D5B8DBC01CD010E9421
S1134060F039DA01C9018A839B83AC83BD8370C0B4
S11340708981992787FD90959C012D5F3F4F888DFD
S1134080998DAA8DBB8D04C0880F991FAA1FBB1FD1
S11340902A95D2F7888F998FAA8FBB8F888D998D97
S11340A0AA8DBB8D9C01AD015695479537952795F3
S11340B08C8D9D8DAE8DBF8D820F931FA41FB51F58
S11340C0288D398D4A8D5B8DBC01CD010E94F0395C
S11340D0DA01C9018A839B83AC83BD8339C089819A
S11340E0992787FD90959C012D5F3F4F888D998D71
S11340F0AA8DBB8D04C0880F991FAA1FBB1F2A95C8
S1134100D2F7888F998FAA8FBB8F888D998DAA8DAE
S1134110BB8D9C01AD0156954795379527958C8DA0
S11341209D8DAE8DBF8D820F931FA41FB51F288D4B
S1134130398D4A8D5B8DBC01CD010E94F039DA01C5
S1134140C9010197A109B1098A839B83AC83BD830B
S11341508A819B81AC81BD81892F9A2FAB2FBB278C
S1134160982F9F7089818295807F292F282B8E8993
S11341709F89FC0127838A819B81AC81BD81282F83
S11341808E899F89FC01268381E06F96CDBFDEBFB7
S1134190DF91CF911F910F91FF90EF9008950F93AE
S11341A01F93CF93DF93CDB7DEB72C97CDBFDEBF80
S11341B08B839C834D835E836F83788709871A87FB
S11341C02B873C8789859A85AB85BC85880F991F89
S11341D0AA1FBB1F2D813E814F815885220F331F9B
S11341E0441F551FBC01CD010E94F039DA01C901F9
S11341F00196A11DB11DB695A79597958795019731
S113420089839A8389819A81892F9927282F2F70EE
S11342108B819C81FC01278329818B819C81FC01FA
S113422026832C96CDBFDEBFDF91CF911F910F91D6
S11342300895CF93DF93CDB7DEB72597CDBFDEBF0B
S113424089839A836B837C834D838B819C81FC015E
S113425080818F37D0F48B819C81FC018081882FF1
S113426090E029813A81820F931F2D81FC012083E4
S11342708B819C81FC018081282F2F5F8B819C8105
S1134280FC01208381E090E002C080E090E025966C
S1134290CDBFDEBFDF91CF910895CF93DF93CDB72C
S11342A0DEB72597CDBFDEBF89839A836B837C837A
S11342B04D832596CDBFDEBFDF91CF910895CF9377
S11342C0DF93CDB7DEB72597CDBFDEBF8A839B834F
S11342D06C837D838C819D81FC018081882329F1FD
S11342E08C819D81FC018081282F21508C819D81AE
S11342F0FC0120838C819D81FC018081882F90E0CA
S11343002A813B81820F931FFC01808189838C81E8
S11343109D81FC018081882F90E02A813B81820F5E
S1134320931FFC011082898101C080E02596CDBFD6
S1134330DEBFDF91CF910895FF920F931F93CF9328
S1134340DF9300D000D0CDB7DEB78C839D836E831E
S11343502E818C819D818C010227802F829580275C
S1134360082E869586958025082E8695802587704B
S1134370002E012F869507948795102D0827069403
S1134380879510250827F82E09831A83FB828981D3
S11343909A812696CDBFDEBFDF91CF911F910F91F9
S11343A0FF900895CF93DF93CDB7DEB72897CDBFA5
S11343B0DEBF8E839F8368878E819F818C839D83DC
S11343C019821A821B8213C08B81882F90E02C8162
S11343D03D81820F931FFC01208189819A81622F84
S11343E00E949C2189839A838B818F5F8B839B811D
S11343F08885981748F389819A812896CDBFDEBFB6
S1134400DF91CF910895EF92FF920F931F93CF9373
S1134410DF93CDB7DEB76297CDBFDEBF8091FE24B8
S11344209091FF24A0910025B09101250097A1054A
S1134430B10569F48AE090E0A0E0B0E08093FE2446
S11344409093FF24A0930025B0930125A7C2409127
S1134450E8275091E9278091FE249091FF24A091B0
S11344600025B09101259C01429FC001439F900DFE
S1134470529F900D112401978093E6289093E7288A
S11344808091E8279091E9279C0140E050E08091D9
S1134490E727882F90E0A0E0B0E079018A01E81ACC
S11344A0F90A0A0B1B0BD801C701AC018091FE2449
S11344B09091FF24A0910025B09101259C01429F79
S11344C0C001439F900D529F900D11248093E828C2
S11344D09093E9282091F0273091F1274091F22719
S11344E05091F327E091E827F091E9278091EE2796
S11344F0682F70E0E69FC001E79F900DF69F900D36
S11345001124CC01A0E0B0E0281B390B4A0B5B0B53
S11345108091EA279091EB27CC01A0E0B0E07901EB
S11345208A01E81AF90A0A0B1B0BD801C701BC015E
S1134530CD010E940A38DC01CB01BC01CD0141E070
S11345400E94D82489839A8389819A81FC0182817B
S113455093818093EE289093EF2889819A81FC01BE
S11345608081918101978093EC289093ED2820918C
S1134570F4273091F5274091F6275091F727809141
S1134580F0279091F127A091F227B091F327281BEF
S1134590390B4A0B5B0BE091E827F091E9278091F6
S11345A0EE27682F70E0E69FC001E79F900DF69F0D
S11345B0900D1124CC01A0E0B0E079018A01E81A41
S11345C0F90A0A0B1B0BD801C701BC01CD010E94DB
S11345D00A38DC01CB01BC01CD0141E00E94D824A2
S11345E08B839C838B819C81FC018281938180934A
S11345F0F2289093F3288B819C81FC018081918126
S113460001978093F0289093F1282091F827309116
S1134610F9274091FA275091FB278091F427909134
S1134620F527A091F627B091F727281B390B4A0BE1
S11346305B0BE091E827F091E9278091EE27682F42
S113464070E0E69FC001E79F900DF69F900D112446
S1134650CC01A0E0B0E079018A01E81AF90A0A0B5A
S11346601B0BD801C701BC01CD010E940A38DC0133
S1134670CB01BC01CD0141E00E94D8248D839E83EF
S11346808D819E81FC01828193818093F628909391
S1134690F7288D819E81FC0180819181019780930F
S11346A0F4289093F5282091FC273091FD27409120
S11346B0FE275091FF278091F8279091F927A09128
S11346C0FA27B091FB27281B390B4A0B5B0BE091AF
S11346D0E827F091E9278091EE27682F70E0E69FA4
S11346E0C001E79F900DF69F900D1124CC01A0E02E
S11346F0B0E079018A01E81AF90A0A0B1B0BD80108
S1134700C701BC01CD010E940A38DC01CB01BC0108
S1134710CD0141E00E94D8248F8398878F819885AA
S1134720FC01828193818093FA289093FB288F81E6
S11347309885FC018081918101978093F82890935A
S1134740F9282091E3273091E4274091E5275091FF
S1134750E6278091FC279091FD27A091FE27B09138
S1134760FF27281B390B4A0B5B0BE091E827F091DC
S1134770E9278091EE27682F70E0E69FC001E79F4C
S1134780900DF69F900D1124CC01A0E0B0E07901CA
S11347908A01E81AF90A0A0B1B0BD801C701BC01EC
S11347A0CD010E940A38DC01CB01BC01CD0141E0FE
S11347B00E94D82489879A8789859A85FC018281F9
S11347C09381809300299093012989859A85FC011E
S11347D08081918101978093FC289093FD282091FA
S11347E0EC273091ED278091EA279091EB2779010E
S11347F0E81AF90AC701CC01A0E0B0E0BC01CD0180
S11348000E940A38DC01CB01BC01CD0140E00E94CA
S1134810D8248B879C878B859C85FC01828193811E
S113482080930829909309298B859C85FC018081BC
S11348309181019780930629909307292091F0276D
S11348403091F1274091F2275091F3278091EE2780
S1134850E82FF0E06091E8277091E927E69FC00116
S1134860E79F900DF69F900D1124CC01A0E0B0E0DD
S1134870281B390B4A0B5B0B8091EC279091ED2799
S1134880CC01A0E0B0E079018A01E81AF90A0A0B28
S11348901B0BD801C701BC01CD010E940A38DC0101
S11348A0CB01BC01CD0141E00E94D8248D879E87B5
S11348B08D859E85FC018281938180930C29909340
S11348C00D298D859E85FC018081918101978093BE
S11348D00A2990930B298091EA279091EB27CC0128
S11348E0A0E0B0E0BC01CD010E940A38DC01CB019C
S11348F0BC01CD0140E00E94D8248F87988B8F851E
S11349009889FC01828193818093042990930529DD
S11349108F859889FC018081918101978093022978
S11349209093032960E074E284E799E440E00E94F4
S1134930D824898B9A8B89899A89FC0182819381F5
S1134940809310299093112989899A89FC01808187
S11349509181019780930E2990930F298091E327E9
S11349609091E427A091E527B091E627BC01CD0101
S11349700E940A389B01AC0160E074E284E799E488
S11349800E949626DC01CB01BC01CD010E94DE37DA
S1134990DC01CB0180931229909313296296CDBF39
S11349A0DEBFDF91CF911F910F91FF90EF9008959B
S11349B0EF92FF920F931F93CF93DF93CDB7DEB7A0
S11349C0A397CDBFDEBF6F8F78A389A39AA34BA310
S11349D019821A821B821C828F8D98A1A9A1BAA167
S11349E0BC01CD010E94A539DC01CB018F8F98A3B6
S11349F0A9A3BAA38F8D98A1A9A1BAA18D839E83DF
S1134A00AF83B88719861A8680E090E0DC018B8733
S1134A109C87AD87BE8780E090E0DC018F87988B10
S1134A20A98BBA8B80E090E0DC018B8B9C8BAD8BE7
S1134A30BE8B80E090E0DC018F8B988FA98FBA8FBA
S1134A4080E090E0DC018B8F9C8FAD8FBE8F8BA1BB
S1134A50882309F4A5C089859A85019689879A8750
S1134A608091FE249091FF24A0910025B09101250E
S1134A70BC01CD010E940A38DC01CB012D813E81AD
S1134A804F815885BC01CD010E944239DC01CB0124
S1134A907C018D0189859A85CC01A0E0B0E0BC0140
S1134AA0CD010E940A389B01AC01C801B7010E94E4
S1134AB07637DC01CB018B879C87AD87BE878B85DE
S1134AC09C85AD85BE859E01215F3F4FBC01CD0114
S1134AD0A9010E940F39DC01CB018B8B9C8BAD8B20
S1134AE0BE8B89859A85CC01A0E0B0E0BC01CD01E4
S1134AF00E940A38DC01CB01BC01CD0120E030E08A
S1134B0040E050E40E947637DC01CB01BC01CD01CA
S1134B1040E050E00E940F39DC01CB018B8F9C8F69
S1134B20AD8FBE8F8B8D9C8DAD8DBE8D11E0BC0184
S1134B30CD0120E030E0A9010E947237882309F0FA
S1134B4010E081E08127882309F085CF8B899C8937
S1134B50AD89BE8911E0BC01CD0120E030E0A9019E
S1134B600E947237882309F010E081E081278823AE
S1134B7009F071CF8B859C85AD85BE8511E0BC01A4
S1134B80CD0120E03FEF4FE757E40E9472378823BE
S1134B900CF010E081E08127882309F05CCFAAC0E3
S1134BA089859A85019689879A878091FE249091B8
S1134BB0FF24A0910025B0910125BC01CD010E94E4
S1134BC00A38DC01CB012D813E814F815885BC011F
S1134BD0CD010E944239DC01CB017C018D01898524
S1134BE09A85CC01A0E0B0E0BC01CD010E940A3856
S1134BF09B01AC01C801B7010E947637DC01CB01EF
S1134C008B879C87AD87BE878B859C85AD85BE854C
S1134C109E01215F3F4FBC01CD01A9010E940F39C4
S1134C20DC01CB018B8B9C8BAD8BBE8B89859A85EC
S1134C30CC01A0E0B0E0BC01CD010E940A38DC0147
S1134C40CB01BC01CD0120E030E040E050E40E9403
S1134C507637DC01CB01BC01CD0140E050E00E947D
S1134C600F39DC01CB018B8F9C8FAD8FBE8F8B8D69
S1134C709C8DAD8DBE8D11E0BC01CD0120E030E0F6
S1134C80A9010E947237882309F410E081E081278A
S1134C90882309F085CF8B899C89AD89BE8911E071
S1134CA0BC01CD0120E030E0A9010E9472378823C5
S1134CB009F010E081E08127882309F071CF8B850A
S1134CC09C85AD85BE8511E0BC01CD0120E03FEFA0
S1134CD04FE757E40E94723788230CF010E081E01C
S1134CE08127882309F05CCF89859A8582309105D4
S1134CF008F456CF8B859C85AD85BE85BC01CD015E
S1134D000E94DE37DC01CB0189839A8389859A85E9
S1134D108B839C83CE010196A396CDBFDEBFDF912A
S1134D20CF911F910F91FF90EF900895CF93DF9350
S1134D30CDB7DEB72E97CDBFDEBF6F837887898767
S1134D409A872B873C874D875E8780E090E0DC0163
S1134D508B839C83AD83BE838B819C81AD81BE811B
S1134D602F81388549855A85BC01CD010E940E37B3
S1134D70DC01CB018B839C83AD83BE838B819C81BF
S1134D80AD81BE812B853C854D855E85BC01CD0101
S1134D900E947637DC01CB0129813A81BC01CD0127
S1134DA0A9010E940F39DC01CB01BC01CD0120E037
S1134DB030E0A9010E947237882371F68B819C81AF
S1134DC0AD81BE812B853C854D855E85BC01CD01C1
S1134DD00E947637DC01CB01BC01CD012E96CDBFFC
S1134DE0DEBFDF91CF910895CF93DF930F920F929F
S1134DF0CDB7DEB789839A8389819A81FC01818545
S1134E00282F2F5F89819A81FC01218789819A81CA
S1134E10FC0181858C3370F089819A81FC011186B3
S1134E2089819A81FC018085282F2F5F89819A814D
S1134E30FC01208789819A81FC0180858C3370F084
S1134E4089819A81FC01108689819A81FC0187817C
S1134E50282F2F5F89819A81FC01278389819A8178
S1134E60FC018781883170F089819A81FC01178265
S1134E7089819A81FC018681282F2F5F89819A81FB
S1134E80FC01268389819A81FC01268189819A818A
S1134E90FC018481958186589D4DFC018081821797
S1134EA010F589819A81FC0180819181813091057D
S1134EB041F489819A81FC01848195818130910535
S1134EC091F089819A8121E0FC01268389819A816C
S1134ED0FC01848195819C012F5F3F4F89819A81D8
S1134EE0FC012483358389819A81FC018481958125
S1134EF08D30910590F089819A81FC01148215828C
S1134F0089819A81FC01828193819C012F5F3F4FAB
S1134F1089819A81FC01228333830F900F90DF9162
S1134F20CF910895EF92FF920F931F93CF93DF9346
S1134F30CDB7DEB72C97CDBFDEBF6F837887898767
S1134F409A874B875C878F819885A985BA8520E1EC
S1134F503EE040E050E0BC01CD010E94F039DA01AE
S1134F60C901BC01CD010E940A38DC01CB01BC019E
S1134F70CD010E944738DC01CB01BC01CD010E9468
S1134F80DE37DC01CB0189839A83AB83BC838981BF
S1134F909A81AB81BC8120E13EE040E050E0BC015D
S1134FA0CD010E94C539DC01CB012F8138854985AB
S1134FB05A8579018A01E81AF90A0A0B1B0BD801F0
S1134FC0C7012CE330E040E050E0BC01CD010E9479
S1134FD0F039DA01C901BC01CD010E940A38DC01B3
S1134FE0CB01BC01CD010E944738DC01CB01BC01DF
S1134FF0CD010E94DE37DC01CB018D832F818981B5
S11350009A81AB81BC81982F9295907F3D818CE3EE
S1135010389F802D1124890FF22EF81A8F2D8E833C
S113502089819A81AB81BC812B853C85F901808380
S11350309183A283B3832D818B859C85FC0124837A
S11350402E818B859C85FC0125832C96CDBFDEBFEC
S1135050DF91CF911F910F91FF90EF900895CF931F
S1135060DF930F920F92CDB7DEB789839A8380E2E4
S113507093E0FC01208D318D89819A8128173907AD
S113508069F080E293E029813A81FC01208F318F1D
S113509089819A8180931025909311250F900F9008
S11350A0DF91CF9108952F923F924F925F926F922A
S11350B07F928F929F92AF92BF92CF92DF92EF92A4
S11350C0FF920F931F93CF93DF93CDB7DEB7EB9788
S11350D0CDBFDEBF0A8F1B8F2C8F3D8F4E8F5F8F0E
S11350E068A379A38AA39BA3188619861A861B86AC
S11350F01C861D861E861F868C8D9D8D855D974022
S11351008A8B9B8B8E8D9F8D01978C8B9D8B88A119
S113511081508E8B89A18F8B8AA1888F8BA1898FD7
S11351208C899D89880F991F880F991F880F991F53
S11351308A579D4DFC012080FC013180FC01428096
S1135140FC015380FC016480FC017580FC018680B5
S1135150FC019780288539854A855B856C857D852A
S11351608E859F85A22CA20EE1E0A21408F0E0E057
S1135170B32CB30EA1E0B31408F0A0E0FE2FFB0D96
S1135180E1E0FB1508F0E0E0AE2BBF2EC42CC40E0A
S1135190B1E0C41408F0B0E0FA2FFC0DE1E0FC1516
S11351A008F0E0E0BE2BCF2ED52CD50EA1E0D5140F
S11351B008F0A0E0FB2FFD0DE1E0FD1508F0E0E0B4
S11351C0AE2BDF2EE62CE60EB1E0E61408F0B0E0DC
S11351D0FA2FFE0DE1E0FE1508F0E0E0BE2BEF2E05
S11351E0F72CF70EA1E0F71408F0A0E0FB2FFF0D59
S11351F0E1E0FF1508F0E0E0AE2BFF2E082D080FCC
S1135200F1E0081508F0F0E0A00FE1E0A01708F0C5
S1135210E0E0FE2B0A2F192D190F8F2F810F182F65
S11352202A2D3B2D4C2D5D2D6E2D7F2D802F912F02
S1135230288739874A875B876C877D878E879F8716
S1135240898D282F30E040E050E060E070E0CB0131
S1135250288439844A845B846C847D848E849F840E
S1135260A22EA20CE1E0A21608F0E0E0B32EB30CEB
S1135270A1E0B31608F0A0E0FE2FFB0DE1E0FB1562
S113528008F0E0E0AE2BBF2EC42EC40CB1E0C4166F
S113529008F0B0E0FA2FFC0DE1E0FC1508F0E0E0C6
S11352A0BE2BCF2ED52ED50CA1E0D51608F0A0E04C
S11352B0FB2FFD0DE1E0FD1508F0E0E0AE2BDF2E45
S11352C0E62EE60CB1E0E61608F0B0E0FA2FFE0D8B
S11352D0E1E0FE1508F0E0E0BE2BEF2EF72EF70C10
S11352E0A1E0F71608F0A0E0FB2FFF0DE1E0FF15A9
S11352F008F0E0E0AE2BFF2E082F080DF1E00817B0
S113530008F0F0E0A00FE1E0A01708F0E0E0FE2BC9
S11353100A2F192F190D8F2F810F182F2A2D3B2D8E
S11353204C2D5D2D6E2D7F2D802F912F2887398751
S11353304A875B876C877D878E879F87888D482FF8
S113534050E02CE330E0429FC001439F900D529FF8
S1135350900D11248CA39DA3892F880F880B8EA3F5
S11353608FA388A789A78AA78BA7288539854A850B
S11353705B856C857D858E859F85ACA0A20EE1E062
S1135380FCA1AF1608F0E0E0BDA0B30EA1E0FDA1C2
S1135390BF1608F0A0E0FE2FFB0DE1E0FB1508F0BE
S11353A0E0E0AE2BBF2ECEA0C40EB1E0EEA1CE162F
S11353B008F0B0E0FA2FFC0DE1E0FC1508F0E0E0A5
S11353C0BE2BCF2EDFA0D50EA1E0FFA1DF1608F083
S11353D0A0E0FB2FFD0DE1E0FD1508F0E0E0AE2BB1
S11353E0DF2EE8A4E60EB1E0E8A5EE1608F0B0E082
S11353F0FA2FFE0DE1E0FE1508F0E0E0BE2BEF2EE3
S1135400F9A4F70EA1E0F9A5FF1608F0A0E0FB2F20
S1135410FF0DE1E0FF1508F0E0E0AE2BFF2E0AA53A
S1135420080FF1E0EAA50E1708F0F0E0A00FE1E0A4
S1135430A01708F0E0E0FE2B0A2F1BA5190F8F2FF1
S1135440810F182F2A2D3B2D4C2D5D2D6E2D7F2D78
S1135450802F912F288739874A875B876C877D87C0
S11354608E879F878F89282F30E040E050E060E0EE
S113547070E0CB01222E332E442E552E662E772E2D
S1135480882E992E222D332D442D552D662D772DC2
S1135490882D992D04E00E94F530A22EB32EC42E3F
S11354A0D52EE62EF72E082F192F2A2C3B2C4C2C08
S11354B05D2C6E2C7F2C802E912E222D332D442D8D
S11354C0552D662D772D882D992D04E00E94F530F9
S11354D02CAB3DAB4EAB5FAB68AF79AF8AAF9BAF44
S11354E02CA92219E1E0FCA9F21708F0E0E03DA99B
S11354F03319A1E0FDA9F31708F0A0E0F32FFE1B78
S1135500E1E03F1708F0E0E0AE2B3F2F4EA944192D
S1135510B1E0EEA9E41708F0B0E0F42FFA1BE1E0E3
S11355204F1708F0E0E0BE2B4F2F5FA95519A1E0FB
S1135530FFA9F51708F0A0E0F52FFB1BE1E05F17CA
S113554008F0E0E0AE2B5F2F68AD6619B1E0E8AD7E
S1135550E61708F0B0E0F62FFA1BE1E06F1708F049
S1135560E0E0BE2B6F2F79AD7719A1E0F9ADF71705
S113557008F0A0E0F72FFB1BE1E07F1708F0E0E064
S1135580AE2B7F2F8AAD8819F1E0EAADE81708F059
S1135590F0E0E82FEA1BAE2FE1E08A1708F0E0E024
S11355A0FE2B8A2F9BAD9919E92FEF1B9E2F2CAB55
S11355B03DAB4EAB5FAB68AF79AF8AAF9BAF2CA965
S11355C03DA94EA95FA968AD79AD8AAD9BAD04E054
S11355D00E94F530A22EB32EC42ED52EE62EF72E21
S11355E0082F192F2A2DFCA92F1BE1E0A21608F081
S11355F0E0E03B2DADA93A1BA1E0B31608F0A0E012
S1135600F32FFE1BE1E03F1708F0E0E0AE2B3F2F45
S11356104C2DEEA94E1BB1E0C41608F0B0E0F42FF7
S1135620FA1BE1E04F1708F0E0E0BE2B4F2F5D2D91
S1135630FFA95F1BA1E0D51608F0A0E0F52FFB1B26
S1135640E1E05F1708F0E0E0AE2B5F2F6E2DE8ADD0
S11356506E1BB1E0E61608F0B0E0F62FFA1BE1E0AD
S11356606F1708F0E0E0BE2B6F2F7F2DF9AD7F1B85
S1135670A1E0F71608F0A0E0F72FFB1BE1E07F178D
S113568008F0E0E0AE2B7F2F802FEAAD8E1BF1E017
S1135690081708F0F0E0E82FEA1BAE2FE1E08A17C4
S11356A008F0E0E0FE2B8A2F912FABAD9A1BE92F77
S11356B0EF1B9E2F222E332E442E552E662E772E30
S11356C0882E992E288539854A855B856C857D854C
S11356D08E859F85A22CA20EE1E0A21408F0E0E0E2
S11356E0B32CB30EA1E0B31408F0A0E0FE2FFB0D21
S11356F0E1E0FB1508F0E0E0AE2BBF2EC42CC40E95
S1135700B1E0C41408F0B0E0FA2FFC0DE1E0FC15A0
S113571008F0E0E0BE2BCF2ED52CD50EA1E0D51499
S113572008F0A0E0FB2FFD0DE1E0FD1508F0E0E03E
S1135730AE2BDF2EE62CE60EB1E0E61408F0B0E066
S1135740FA2FFE0DE1E0FE1508F0E0E0BE2BEF2E8F
S1135750F72CF70EA1E0F71408F0A0E0FB2FFF0DE3
S1135760E1E0FF1508F0E0E0AE2BFF2E082D080F56
S1135770F1E0081508F0F0E0A00FE1E0A01708F050
S1135780E0E0FE2B0A2F192D190F8F2F810F182FF0
S11357902A2D3B2D4C2D5D2D6E2D7F2D802F912F8D
S11357A0288739874A875B876C877D878E879F87A1
S11357B08E89A82EBB24CC24DD24EE24FF2487016B
S11357C02A2D3B2D4C2D5D2D6E2D7F2D802F912F5D
S11357D00F2EF0E8AF2EF02D0F2EF1E5BF2EF02D99
S11357E0CC24C394DD24EE24FF2400E010E00E94C6
S11357F02230A22EB32EC42ED52EE62EF72E082F3D
S1135800192F2A2D3B2D4C2D5D2D6E2D7F2D802F94
S1135810912F288439844A845B846C847D848E84AB
S11358209F84A22EA20CE1E0A21608F0E0E0B32EC1
S1135830B30CA1E0B31608F0A0E0FE2FFB0DE1E0ED
S1135840FB1508F0E0E0AE2BBF2EC42EC40CB1E073
S1135850C41608F0B0E0FA2FFC0DE1E0FC1508F0E6
S1135860E0E0BE2BCF2ED52ED50CA1E0D51608F046
S1135870A0E0FB2FFD0DE1E0FD1508F0E0E0AE2B0C
S1135880DF2EE62EE60CB1E0E61608F0B0E0FA2FC3
S1135890FE0DE1E0FE1508F0E0E0BE2BEF2EF72E42
S11358A0F70CA1E0F71608F0A0E0FB2FFF0DE1E0F4
S11358B0FF1508F0E0E0AE2BFF2E082F080DF1E0F5
S11358C0081708F0F0E0A00FE1E0A01708F0E0E00E
S11358D0FE2B0A2F192F190D8F2F810F182F2A2D08
S11358E03B2D4C2D5D2D6E2D7F2D802F912F2887E4
S11358F039874A875B876C877D878E879F878A89EC
S11359009B895C01CC24DD24EE24FF2487012A2D0D
S11359103B2D4C2D5D2D6E2D7F2D802F912F0F2E25
S1135920F0E8AF2EF02D0F2EF3E3BF2EF02D0F2E47
S1135930F1EECF2EF02DDD24D394EE24FF2400E0ED
S113594010E00E942230A22EB32EC42ED52EE62EB5
S1135950F72E082F192F2A2D3B2D4C2D5D2D6E2D42
S11359607F2D802F912F288439844A845B846C8412
S11359707D848E849F84A22EA20CE1E0A21608F0FE
S1135980E0E0B32EB30CA1E0B31608F0A0E0FE2FC4
S1135990FB0DE1E0FB1508F0E0E0AE2BBF2EC42EBA
S11359A0C40CB1E0C41608F0B0E0FA2FFC0DE1E03D
S11359B0FC1508F0E0E0BE2BCF2ED52ED50CA1E0CF
S11359C0D51608F0A0E0FB2FFD0DE1E0FD1508F071
S11359D0E0E0AE2BDF2EE62EE60CB1E0E61608F092
S11359E0B0E0FA2FFE0DE1E0FE1508F0E0E0BE2B7A
S11359F0EF2EF72EF70CA1E0F71608F0A0E0FB2F2E
S1135A00FF0DE1E0FF1508F0E0E0AE2BFF2E082FBC
S1135A10080DF1E0081708F0F0E0A00FE1E0A0178E
S1135A2008F0E0E0FE2B0A2F192F190D8F2F810F9C
S1135A30182F2A2D3B2D4C2D5D2D6E2D7F2D802F63
S1135A40912F288739874A875B876C877D878E8764
S1135A509F87198288ED97E08A839B8318C02C8DD9
S1135A603D8D8A819B812817390749F48E8D9F8D3E
S1135A708330910538F089818F5F898303C08981E0
S1135A808F5F89838A819B8104968A839B832C8D73
S1135A903D8D8A819B812817390708F78981882FD2
S1135AA090E0A0E0B0E020E831E541E050E0BC0146
S1135AB0CD010E94C539DC01CB018CA79DA7AEA7FF
S1135AC0BFA7BB0F880B982FDC0188AB89AB8AABCF
S1135AD08BABA884B984CA84DB84EC84FD840E85F2
S1135AE01F852CA52A0DE1E0FCA52F1708F0E0E0A6
S1135AF03DA53B0DF1E0ADA53A1708F0F0E0E30F4A
S1135B00A1E0E31708F0A0E0FA2B3E2F4EA54C0DC0
S1135B10E1E0AEA54A1708F0E0E0F40FA1E0F417C5
S1135B2008F0A0E0EA2B4F2F5FA55D0DF1E0AFA5D3
S1135B305A1708F0F0E0E50FA1E0E51708F0A0E03F
S1135B40FA2B5E2F68A96E0DE1E0A8A96A1708F088
S1135B50E0E0F60FA1E0F61708F0A0E0EA2B6F2FC3
S1135B6079A97F0DF1E0A9A97A1708F0F0E0E70F11
S1135B70A1E0E71708F0A0E0FA2B7E2F8AA9800F96
S1135B80E1E0AAA98A1708F0E0E0F80FA1E0F8170D
S1135B9008F0A0E0EA2B8F2F9BA9910FE90F9E2F0D
S1135BA0A22EB32EC42ED52EE62EF72E082F192F93
S1135BB0A886B986CA86DB86EC86FD860E871F8793
S1135BC0A884B984CA84DB84EC84FD840E851F8593
S1135BD00F2EF0E82F2EF02D0F2EF6E43F2EF02D91
S1135BE00F2EF8E64F2EF02D0F2EF8E55F2EF02D38
S1135BF066247724882499242A2D220DE1E02A158D
S1135C0008F0E0E03B2D330DF1E03B1508F0F0E047
S1135C10E30FA1E0E31708F0A0E0FA2B3E2F4C2D90
S1135C20440DE1E04C1508F0E0E0F40FA1E0F417B6
S1135C3008F0A0E0EA2B4F2F5D2D550DF1E05D1526
S1135C4008F0F0E0E50FA1E0E51708F0A0E0FA2B7A
S1135C505E2F6E2D660DE1E06E1508F0E0E0F60FA4
S1135C60A1E0F61708F0A0E0EA2B6F2F7F2D770D47
S1135C70F1E07F1508F0F0E0E70FA1E0E71708F086
S1135C80A0E0FA2B7E2F802F880DE1E0801708F02A
S1135C90E0E0F80FA1E0F81708F0A0E0EA2B8F2F5E
S1135CA0912F990DE90F9E2FA22EB32EC42ED52E1F
S1135CB0E62EF72E082F192FA886B986CA86DB860A
S1135CC0EC86FD860E871F87A884B984CA84DB848A
S1135CD0EC84FD840E851F850F2EF8E12F2EF02D08
S1135CE033244424552466247724882499242A2D93
